{
  "contractName": "TaskContract",
  "abi": [
    {
      "anonymous": false,
      "inputs": [
        {
          "indexed": false,
          "internalType": "address",
          "name": "recipient",
          "type": "address"
        },
        {
          "indexed": false,
          "internalType": "uint256",
          "name": "taskId",
          "type": "uint256"
        }
      ],
      "name": "AddTask",
      "type": "event"
    },
    {
      "anonymous": false,
      "inputs": [
        {
          "indexed": false,
          "internalType": "uint256",
          "name": "taskId",
          "type": "uint256"
        },
        {
          "indexed": false,
          "internalType": "bool",
          "name": "isDeleted",
          "type": "bool"
        }
      ],
      "name": "DeleteTask",
      "type": "event"
    },
    {
      "inputs": [
        {
          "internalType": "uint256",
          "name": "",
          "type": "uint256"
        }
      ],
      "name": "taskToOwner",
      "outputs": [
        {
          "internalType": "address",
          "name": "",
          "type": "address"
        }
      ],
      "stateMutability": "view",
      "type": "function",
      "constant": true
    },
    {
      "inputs": [
        {
          "internalType": "string",
          "name": "_taskText",
          "type": "string"
        },
        {
          "internalType": "bool",
          "name": "isDeleted",
          "type": "bool"
        }
      ],
      "name": "addTask",
      "outputs": [],
      "stateMutability": "nonpayable",
      "type": "function"
    },
    {
      "inputs": [],
      "name": "getMyTasks",
      "outputs": [
        {
          "components": [
            {
              "internalType": "uint256",
              "name": "id",
              "type": "uint256"
            },
            {
              "internalType": "string",
              "name": "taskText",
              "type": "string"
            },
            {
              "internalType": "bool",
              "name": "isDeleted",
              "type": "bool"
            }
          ],
          "internalType": "struct TaskContract.Task[]",
          "name": "",
          "type": "tuple[]"
        }
      ],
      "stateMutability": "view",
      "type": "function",
      "constant": true
    },
    {
      "inputs": [
        {
          "internalType": "uint256",
          "name": "_taskId",
          "type": "uint256"
        }
      ],
      "name": "deleteTask",
      "outputs": [],
      "stateMutability": "nonpayable",
      "type": "function"
    }
  ],
  "bytecode": "0x608060405234801561000f575f80fd5b50610f308061001d5f395ff3fe608060405234801561000f575f80fd5b506004361061004a575f3560e01c806320df45811461004e578063560f31921461006a5780636641c6c4146100865780636e13f818146100b6575b5f80fd5b610068600480360381019061006391906107b6565b6100d4565b005b610084600480360381019061007f9190610843565b6101ec565b005b6100a0600480360381019061009b9190610843565b610301565b6040516100ad91906108ad565b60405180910390f35b6100be610331565b6040516100cb9190610a66565b60405180910390f35b5f808054905090505f6040518060600160405280838152602001858152602001841515815250908060018154018082558091505060019003905f5260205f2090600302015f909190919091505f820151815f0155602082015181600101908161013d9190610c80565b506040820151816002015f6101000a81548160ff02191690831515021790555050503360015f8381526020019081526020015f205f6101000a81548173ffffffffffffffffffffffffffffffffffffffff021916908373ffffffffffffffffffffffffffffffffffffffff1602179055507f1f54e1ba1832d428fbd7e7792beaf62b1fc5a382c207ffd614209c1413e94fda33826040516101df929190610d5e565b60405180910390a1505050565b3373ffffffffffffffffffffffffffffffffffffffff1660015f8381526020019081526020015f205f9054906101000a900473ffffffffffffffffffffffffffffffffffffffff1673ffffffffffffffffffffffffffffffffffffffff161461028a576040517f08c379a000000000000000000000000000000000000000000000000000000000815260040161028190610e05565b60405180910390fd5b60015f828154811061029f5761029e610e23565b5b905f5260205f2090600302016002015f6101000a81548160ff0219169083151502179055507ff88a35c3d2016c409a46570b994a17b408dbc83c14a03f521512d50b85386d068160016040516102f6929190610e5f565b60405180910390a150565b6001602052805f5260405f205f915054906101000a900473ffffffffffffffffffffffffffffffffffffffff1681565b60605f808054905067ffffffffffffffff8111156103525761035161065d565b5b60405190808252806020026020018201604052801561038b57816020015b610378610613565b8152602001906001900390816103705790505b5090505f805b5f8054905081101561055b573373ffffffffffffffffffffffffffffffffffffffff1660015f8381526020019081526020015f205f9054906101000a900473ffffffffffffffffffffffffffffffffffffffff1673ffffffffffffffffffffffffffffffffffffffff1614801561043957505f15155f828154811061041957610418610e23565b5b905f5260205f2090600302016002015f9054906101000a900460ff161515145b15610548575f818154811061045157610450610e23565b5b905f5260205f2090600302016040518060600160405290815f820154815260200160018201805461048190610ab3565b80601f01602080910402602001604051908101604052809291908181526020018280546104ad90610ab3565b80156104f85780601f106104cf576101008083540402835291602001916104f8565b820191905f5260205f20905b8154815290600101906020018083116104db57829003601f168201915b50505050508152602001600282015f9054906101000a900460ff16151515158152505083838151811061052e5761052d610e23565b5b6020026020010181905250818061054490610eb3565b9250505b808061055390610eb3565b915050610391565b505f8167ffffffffffffffff8111156105775761057661065d565b5b6040519080825280602002602001820160405280156105b057816020015b61059d610613565b8152602001906001900390816105955790505b5090505f5b82811015610609578381815181106105d0576105cf610e23565b5b60200260200101518282815181106105eb576105ea610e23565b5b6020026020010181905250808061060190610eb3565b9150506105b5565b5080935050505090565b60405180606001604052805f8152602001606081526020015f151581525090565b5f604051905090565b5f80fd5b5f80fd5b5f80fd5b5f80fd5b5f601f19601f8301169050919050565b7f4e487b71000000000000000000000000000000000000000000000000000000005f52604160045260245ffd5b6106938261064d565b810181811067ffffffffffffffff821117156106b2576106b161065d565b5b80604052505050565b5f6106c4610634565b90506106d0828261068a565b919050565b5f67ffffffffffffffff8211156106ef576106ee61065d565b5b6106f88261064d565b9050602081019050919050565b828183375f83830152505050565b5f610725610720846106d5565b6106bb565b90508281526020810184848401111561074157610740610649565b5b61074c848285610705565b509392505050565b5f82601f83011261076857610767610645565b5b8135610778848260208601610713565b91505092915050565b5f8115159050919050565b61079581610781565b811461079f575f80fd5b50565b5f813590506107b08161078c565b92915050565b5f80604083850312156107cc576107cb61063d565b5b5f83013567ffffffffffffffff8111156107e9576107e8610641565b5b6107f585828601610754565b9250506020610806858286016107a2565b9150509250929050565b5f819050919050565b61082281610810565b811461082c575f80fd5b50565b5f8135905061083d81610819565b92915050565b5f602082840312156108585761085761063d565b5b5f6108658482850161082f565b91505092915050565b5f73ffffffffffffffffffffffffffffffffffffffff82169050919050565b5f6108978261086e565b9050919050565b6108a78161088d565b82525050565b5f6020820190506108c05f83018461089e565b92915050565b5f81519050919050565b5f82825260208201905092915050565b5f819050602082019050919050565b6108f881610810565b82525050565b5f81519050919050565b5f82825260208201905092915050565b5f5b8381101561093557808201518184015260208101905061091a565b5f8484015250505050565b5f61094a826108fe565b6109548185610908565b9350610964818560208601610918565b61096d8161064d565b840191505092915050565b61098181610781565b82525050565b5f606083015f83015161099c5f8601826108ef565b50602083015184820360208601526109b48282610940565b91505060408301516109c96040860182610978565b508091505092915050565b5f6109df8383610987565b905092915050565b5f602082019050919050565b5f6109fd826108c6565b610a0781856108d0565b935083602082028501610a19856108e0565b805f5b85811015610a545784840389528151610a3585826109d4565b9450610a40836109e7565b925060208a01995050600181019050610a1c565b50829750879550505050505092915050565b5f6020820190508181035f830152610a7e81846109f3565b905092915050565b7f4e487b71000000000000000000000000000000000000000000000000000000005f52602260045260245ffd5b5f6002820490506001821680610aca57607f821691505b602082108103610add57610adc610a86565b5b50919050565b5f819050815f5260205f209050919050565b5f6020601f8301049050919050565b5f82821b905092915050565b5f60088302610b3f7fffffffffffffffffffffffffffffffffffffffffffffffffffffffffffffffff82610b04565b610b498683610b04565b95508019841693508086168417925050509392505050565b5f819050919050565b5f610b84610b7f610b7a84610810565b610b61565b610810565b9050919050565b5f819050919050565b610b9d83610b6a565b610bb1610ba982610b8b565b848454610b10565b825550505050565b5f90565b610bc5610bb9565b610bd0818484610b94565b505050565b5b81811015610bf357610be85f82610bbd565b600181019050610bd6565b5050565b601f821115610c3857610c0981610ae3565b610c1284610af5565b81016020851015610c21578190505b610c35610c2d85610af5565b830182610bd5565b50505b505050565b5f82821c905092915050565b5f610c585f1984600802610c3d565b1980831691505092915050565b5f610c708383610c49565b9150826002028217905092915050565b610c89826108fe565b67ffffffffffffffff811115610ca257610ca161065d565b5b610cac8254610ab3565b610cb7828285610bf7565b5f60209050601f831160018114610ce8575f8415610cd6578287015190505b610ce08582610c65565b865550610d47565b601f198416610cf686610ae3565b5f5b82811015610d1d57848901518255600182019150602085019450602081019050610cf8565b86831015610d3a5784890151610d36601f891682610c49565b8355505b6001600288020188555050505b505050505050565b610d5881610810565b82525050565b5f604082019050610d715f83018561089e565b610d7e6020830184610d4f565b9392505050565b5f82825260208201905092915050565b7f596f7520617265206e6f7420746865206f776e6572206f6620746869732074615f8201527f736b000000000000000000000000000000000000000000000000000000000000602082015250565b5f610def602283610d85565b9150610dfa82610d95565b604082019050919050565b5f6020820190508181035f830152610e1c81610de3565b9050919050565b7f4e487b71000000000000000000000000000000000000000000000000000000005f52603260045260245ffd5b610e5981610781565b82525050565b5f604082019050610e725f830185610d4f565b610e7f6020830184610e50565b9392505050565b7f4e487b71000000000000000000000000000000000000000000000000000000005f52601160045260245ffd5b5f610ebd82610810565b91507fffffffffffffffffffffffffffffffffffffffffffffffffffffffffffffffff8203610eef57610eee610e86565b5b60018201905091905056fea264697066735822122001639c2b98314d7953089a20b6b03f036cfe3ca234dc0d9a122462ec60073fbb64736f6c63430008140033",
  "immutableReferences": {},
  "source": "// SPDX-License-Identifier: MIT\npragma solidity >=0.4.22 <0.9.0;\n\ncontract TaskContract {\n  event AddTask(address recipient, uint taskId);\n\n  event DeleteTask(uint taskId, bool isDeleted);\n\n  struct Task{\n    uint id;\n    string taskText;\n    bool isDeleted;\n  }\n\n  Task [] tasks;\n\n  mapping (uint256 => address) public taskToOwner;\n\n  function addTask(string memory _taskText, bool isDeleted) external{\n    uint taskId = tasks.length;\n    tasks.push(Task(taskId, _taskText, isDeleted));\n    taskToOwner[taskId] = msg.sender;\n    emit AddTask(msg.sender, taskId);\n  }\n\n  function getMyTasks() external view returns (Task[] memory){\n    Task[] memory temporaryTaskArray = new Task[](tasks.length);\n    uint taskCounter = 0;\n\n    for (uint i = 0; i < tasks.length; i++){\n      if (taskToOwner[i] == msg.sender && tasks[i].isDeleted == false){\n        temporaryTaskArray[taskCounter] = tasks[i];\n        taskCounter++;\n      }\n    }\n\n    Task[] memory myTasks = new Task[](taskCounter);\n    for (uint i = 0; i < taskCounter; i++){\n      myTasks[i] = temporaryTaskArray[i];\n    }\n    return myTasks;\n  }\n\n  function deleteTask(uint _taskId) external{\n    require(taskToOwner[_taskId] == msg.sender, \"You are not the owner of this task\");\n    tasks[_taskId].isDeleted = true;\n    emit DeleteTask(_taskId, true);\n  }\n}\n",
  "sourcePath": "C:\\Complete Blockchain Development Bootcammp\\Solidity-Todo-List-with-Nextjs-Tailwind-CSS-Template\\smart contract\\contracts\\TaskContract.sol",
  "compiler": {
    "name": "solc",
    "version": "0.8.20+commit.a1b79de6.Emscripten.clang"
  },
  "schemaVersion": "3.4.14",
  "updatedAt": "2023-12-17T14:12:26.807Z",
  "networkType": "ethereum",
  "devdoc": {
    "kind": "dev",
    "methods": {},
    "version": 1
  },
  "userdoc": {
    "kind": "user",
    "methods": {},
    "version": 1
  }
}